:020000021000EC
:10E00000F8942FEF2DBF20E12EBF21E0A0E0B1E07A
:10E01000E1E0EBBFE8E9F1EFA032B20719F00790B9
:10E020000D92FACF1124C6E0A0E2B1E0A238BC07FD
:10E0300011F01D92FBCF0E941FF00C94000080ECA9
:10E0400085BF0E9471F80E94B9F6892B51F40E9495
:10E050000AF2892B31F480910206882311F00E9484
:10E0600080F080E090E00895DF92EF92FF920F93AE
:10E070001F93CF93DF93FC017B018A0181E0413044
:10E08000580710F000E011E081E0E03EF80780F56D
:10E09000FBBFDE2E80E09E2F63E00E94BEF880E092
:10E0A00090E061E10E94BEF8C0E0D0E009C0F70155
:10E0B000EC0FFD1F60817181CE010E94C0F8229695
:10E0C000C017D107A0F306C0CE016FEF7FEF0E940B
:10E0D000C0F82296CF3FD105B9F3B0F380E09D2D73
:10E0E00065E00E94BEF880E090E061E10E94BEF829
:10E0F000DF91CF911F910F91FF90EF90DF900895E6
:10E100006F927F928F929F92AF92BF92DF92EF9227
:10E11000FF920F931F93CF93DF9381E090E0082E3F
:10E12000892F902D9093A1038093A003A2EAB3E0DE
:10E1300002E010E0E2E0F6E081918D930F5F1F4F67
:10E140008823D1F7FD018FE6819383E611968C93A6
:10E15000DF01119694E79183FD01319685E61196D2
:10E160008C939183128246E0842E912C800E911E16
:10E1700035E4A32EB12CEE24FF2424E0622E712C72
:10E18000DD246091FE057091FF058091000690915D
:10E190000106A50120E034E084010E9402F397FD0E
:10E1A00014C080E094E060E27EE40E9423F3EC017E
:10E1B0008430910554F080914A0190914B01082ED2
:10E1C000892F902D039731F064C0D39483E0D81643
:10E1D000C1F65FC0E114F10491F4A0904201B09047
:10E1E00043010A2CAB2CB02CC301082E892F902D93
:10E1F0009093A1038093A00394E0892E912C009129
:10E200004C0110914D01002E012F102DC7010196D8
:10E210000817190731F0E114F10409F43AC0870135
:10E2200022C0C430D105B9F0EE0CFF1CAE01445041
:10E230005040C7016EE471E00E9434F081E0C530C7
:10E24000D8074CF0AE0144505140C70101966EE42E
:10E2500072E00E9434F0C801082E892F902D90930F
:10E26000A3038093A203C450D24014F0780188CF56
:10E270006091FE057091FF05809100069091010666
:10E28000A50120E034E084010E9402F320E030E0A8
:10E2900002C02FEF3FEFC901DF91CF911F910F9186
:10E2A000FF90EF90DF90BF90AF909F908F907F9006
:10E2B0006F900895CF93DF93982FEAE3F2E0808187
:10E2C000882301F18F3F01F1EF0121968917B1F405
:10E2D0009881491708F4942FDF0120E030E009C04D
:10E2E000FB01E20FF31F11968C91119780832F5F32
:10E2F0003F4F11962917A0F3888107C08181FE0145
:10E30000E80FF11D3196DBCF80E0DF91CF910895CA
:10E31000CF93DF93FC01EA01322FDC016D9321835F
:10E320001196922F03C08991818391503196992340
:10E33000D1F7FD01E30FF11D8FEF8083CF01DF9156
:10E34000CF910895AF92BF92CF92DF92EF92FF925A
:10E350000F931F93DF93CF930F92CDB7DEB76C016E
:10E36000E62EFF245E010894A11CB11C6FEF7FEF25
:10E370008FEF9FEF43E450E024E430E086010E94F9
:10E3800002F397FD38C084E490E060E27EE40E94EE
:10E3900023F38C0197FD2FC00097F9F020914E01D7
:10E3A00030914F0140915001509151018091A4034F
:10E3B0009091A503A091A603B091A7032817390750
:10E3C0004A075B0751F485E3B50141E00E945AF129
:10E3D000813019F489818E1581F068EE73E080E058
:10E3E00090E00E94A7F8F39483E0F81609F0BECFFE
:10E3F00000E010E002C00FEF1FEFC8010F90CF91B7
:10E40000DF911F910F91FF90EF90DF90CF90BF9021
:10E41000AF9008950F931F93DF93CF930F92CDB7D3
:10E42000DEB780911C0190911D01A0911E01B09159
:10E430001F010097A105B10549F080931001909349
:10E440001101A0931201B0931301D0C010921001DA
:10E4500010921101109212011092130161E0609369
:10E46000A00380910E0190E0A0E0B0E0BA2FA92FA8
:10E47000982F882720910F0130E040E050E0822B58
:10E48000932BA42BB52B8093A4039093A503A09367
:10E49000A603B093A70380E890E09093AB0380932A
:10E4A000AA036093A10386E08093A20390E00BC0CF
:10E4B000E92FF0E0DF01A050BF4F1A968C91E45491
:10E4C000FC4F80839F5F963098F383E692E8A3E544
:10E4D000B3E680938C0490938D04A0938E04B09344
:10E4E0008F0481E0898380E994E065E38E010F5F0A
:10E4F0001F4FA80121E00E9488F184EF90E062E0C4
:10E500000E94A2F1181619060CF073C086E362E7A8
:10E5100073E044E00E945AF183E0898380E994E04B
:10E5200065E3A80121E00E9488F162E34AE551E039
:10E5300024E00E9488F166E342E753E024E00E9471
:10E5400088F180E091E065E00E94A2F118161906BA
:10E550000CF04FC080915A0190915B01A0915C0139
:10E56000B0915D018093100190931101A09312016D
:10E57000B09313018091FE059091FF05A0910006D4
:10E58000B09101060097A105B10581F480915E016B
:10E5900090915F01A0916001B09161018093FE05AF
:10E5A0009093FF05A0930006B093010680910206A8
:10E5B0008823B1F4A6EBB1E0198207C0E82FF0E0A0
:10E5C000E450FA4F968311968F5F9C91992311F036
:10E5D0008F37A0F38983E981F0E0E450FA4F168287
:10E5E00081E064E171E044E00E945AF120E030E013
:10E5F00002C02FEF3FEFC9010F90CF91DF911F9124
:10E600000F9108950F931F93022E232F302D3093D7
:10E61000990320939803042E452F502D50939B036C
:10E6200040939A03085F1F4F9801022E232F302D2D
:10E6300030939D0320939C0341E198010E944AF38B
:10E640001F910F9108950F931F93CF93DF938C0128
:10E65000EB0181E1BE010E94DDF39C011816190651
:10E660009CF48091440190914501082E892F902DB2
:10E670000817190771F72091460130914701022EC2
:10E68000232F302D28503040C901DF91CF911F91A9
:10E690000F910895BF92CF92DF92EF92FF920F9366
:10E6A0001F93DF93CF9300D000D000D0CDB7DEB75B
:10E6B0007B018C01B42E6901AE014F5F5F4F0E9458
:10E6C0000FF5892B19F02FEF3FEF66C085E480939B
:10E6D000840384E190E0C80ED91EC601082E892F5C
:10E6E000902D909387038093860380E480938C031E
:10E6F000B0928D03E0929403F092950300939603F9
:10E70000109397038091100190911101A091120133
:10E71000B09113018093900390939103A09392037F
:10E72000B09393038091880390918903019690930D
:10E7300089038093880310928F0310928E03E4E87C
:10E74000F3E020E030E040E050E081919191A0E0E2
:10E75000B0E0280F391F4A1F5B1F93E0E839F90723
:10E76000A1F705C0620F731F9B0140E050E0CA0192
:10E77000AA27BB27BC01892BA9F7C90180959095D1
:10E7800090938F0380938E03CE01019668E070E032
:10E79000A6010E9424F69C01C90126960FB6F894A2
:10E7A000DEBF0FBECDBFCF91DF911F910F91FF90C4
:10E7B000EF90DF90CF90BF9008951F93CF93DF939A
:10E7C000182FEB0188E090E0BE010E9478F7BC01B1
:10E7D000181619060CF058C020912E01822F807F48
:10E7E000803481F78091340190913501082E892F72
:10E7F000902D9F73892B31F780913701811711F785
:10E800006091300170913101062E672F702D822F9B
:10E810008F7090E0880F991F880F991F681B790BE4
:10E8200020913E0130913F014091400150914101C2
:10E830002F3F8FEF38078FEF48078FEF580721F1F1
:10E840008091100190911101A0911201B0911301DA
:10E850000097A105B10509F4B5CF281739074A0774
:10E860005B0791F08091140190911501A091160120
:10E87000B0911701282B392B4A2B5B2B2F5F3F4F71
:10E880004F4F5F4F09F09ECFCB01DF91CF911F918A
:10E890000895EF92FF920F931F93209110013091F2
:10E8A000110140911201509113018091EE05909158
:10E8B000EF05A091F005B091F10582179307A40729
:10E8C000B50799F58091DC059091DD05082E892F1B
:10E8D000902D029709F09EC08091E4059091E50586
:10E8E000A091E605B091E7058093F2059093F305BA
:10E8F000A093F405B093F5058091DE058093F605AD
:10E900008091DF058093F7058091E0058093F805FD
:10E910008091E1058093F9058091E2058093FA05E5
:10E920008091E3058093FB0575C0E090E405F090CD
:10E93000E5050091E6051091E705E216F3060407E8
:10E94000150709F067C08091DC059091DD05082E60
:10E95000892F902D8130910509F05CC0082E892FF8
:10E96000902D9093D7058093D60588E090E0909302
:10E97000D9058093D80586E08093DA0584E08093FA
:10E98000DB0582E090E0082E892F902D9093DD0525
:10E990008093DC058091DE058093E8058091DF059A
:10E9A0008093E9058091E0058093EA058091E10577
:10E9B0008093EB058091E2058093EC058091E3055F
:10E9C0008093ED05E092EE05F092EF050093F005DF
:10E9D0001093F10580910A018093DE0580910B016F
:10E9E0008093DF0580910C018093E00580910D01FB
:10E9F0008093E10580910E018093E20580910F01E3
:10EA00008093E30580E090E068E076E04CE150E040
:10EA10000E9424F61F910F91FF90EF900895DF92CE
:10EA2000EF92FF920F931F93CF93DF937B018C01A3
:10EA3000EA018FEFE8168FEFF8068FEF08078FEFE8
:10EA4000180761F480E090E02FEFFE01E80FF91F56
:10EA50002083019686309105C1F7E4C08091F205CC
:10EA60009091F305A091F405B091F5058E159F05E1
:10EA7000A007B10709F4BDC021E030E0C901082EAC
:10EA8000892F902D9093D7058093D60588E090E04C
:10EA90009093D9058093D80586E08093DA0584E0C9
:10EAA0008093DB05022E232F302D3093DD0520933C
:10EAB000DC0580910A018093DE0580910B01809333
:10EAC000DF0580910C018093E00580910D0180931A
:10EAD000E10580910E018093E20580910F01809302
:10EAE000E3058091100190911101A0911201B09164
:10EAF00013018093E4059093E505A093E605B09398
:10EB0000E7058FEF8093E8058093E9058093EA0598
:10EB10008093EB058093EC058093ED05E092EE0584
:10EB2000F092EF050093F0051093F105DD2480E0ED
:10EB300090E068E076E04CE150E00E9424F697FD1A
:10EB400058C088E096E068EE73E00E9478F71816E7
:10EB500019060CF047C020914601309147014091C1
:10EB60004801509149018091100190911101A091AB
:10EB70001201B0911301281739074A075B07A1F565
:10EB80008091340190913501082E892F902D0297A4
:10EB900059F580913C0190913D01A0913E01B091C9
:10EBA0003F018093F2059093F305A093F405B09391
:10EBB000F505809136018093F605809137018093A9
:10EBC000F705809138018093F80580913901809391
:10EBD000F90580913A018093FA0580913B01809379
:10EBE000FB0507C0892B29F4D3948AE0D81609F0D5
:10EBF0009ECF8091F2059091F305A091F405B0911C
:10EC0000F5058E159F05A007B10719F02FEF3FEF0F
:10EC10000BC0A6EFB5E0FE018D91819385E0AC3F7E
:10EC2000B807D1F720E030E0C901DF91CF911F9103
:10EC30000F91FF90EF90DF900895E199FECF9FBB79
:10EC40008EBBE09A8DB30895EF92FF920F931F93BE
:10EC5000CF93DF937C0186E06830780719F0C6E730
:10EC6000D3E002C0C8ECD5E08E0180910A018E830A
:10EC700080910B018F8380910C01888780910D0119
:10EC8000898780910E018A8780910F018B87E1141B
:10EC9000F10481F020E030E0FE01E20FF31FD70124
:10ECA000A20FB31F8C9180832F5F3F4F2630310519
:10ECB00099F707C08FEF888389838A838B838C833E
:10ECC0008D837D876C87425F5F4F4C33510510F019
:10ECD000BA0102C06CE370E082E280930083E62F09
:10ECE00060930A83972F70930B831092088380E4BC
:10ECF0008093098382E18093008320E030E007C0A5
:10ED0000D8018D918D01809310832F5F3F4F241781
:10ED10003507B0F304C0109210834F5F5F4F461762
:10ED20005707C8F382E28093008320E030E08091AF
:10ED3000078386FD05C02F5F3F4F25313105B9F7A9
:10ED400080E480930783E093058390930683809308
:10ED5000048386E2809300838091008382FDFCCF50
:10ED600080E090E0DF91CF911F910F91FF90EF90A5
:10ED70000895FF920F931F9310EC15BF00911F830E
:10ED800065E070E080E090E00E94A7F800931F83A8
:10ED900068EE73E080E090E00E94A7F815BB14BB1A
:10EDA00064E170E080E090E00E94A7F881EE80933B
:10EDB000008380E48093018385B78F7785BF9D9919
:10EDC00003C08FEF9FEF0BC08FEF9FEF02C0009744
:10EDD00051F001979D99FBCFF2CF009721F0019759
:10EDE0009D9BFBCFECCF85B7806885BF15BA14BA61
:10EDF000F090008381E2F816D9F710920F830FEF9D
:10EE00000093078381EE8093008380EC80930183DD
:10EE10001092068310E2109305831092018368EC30
:10EE200070E080E090E00E94A7F8F092008388E410
:10EE300080930E8310920A8310920B8310930C839D
:10EE400082E080930D8380E4809304838FE5809338
:10EE500003839CE49093018380E680930283009374
:10EE6000078381E68093008380910A018093018368
:10EE700080910B018093028380910C018093038326
:10EE800080910D018093048380910E01809305830E
:10EE900080910F018093068310920883109209835A
:10EEA00010920A8310920B8310920C8310920D83A0
:10EEB00010920E8310920F8390930783F092008339
:10EEC00084E080930C830093078310920F8382E287
:10EED0008093008310920D8368EE73E080E090E0F1
:10EEE0000E94A7F880E090E01F910F91FF90089595
:10EEF0004F925F926F927F928F929F92AF92BF924A
:10EF0000CF92DF92EF92FF920F931F93DF93CF93F5
:10EF100000D000D0CDB7DEB76C018B0120E030E02F
:10EF2000E2E64E2E72E2F72E64E0662E5AE0752E6F
:10EF30004E010894811C911C45E0A42EB12CAC0E0E
:10EF4000BD1E90E4E92E8FE5582EABC09F5F409127
:10EF5000078342FDAEC040FD07C0992311F4015064
:10EF600010400115110591F740FD03C04093078340
:10EF7000A2C04092008380910783F0920083609149
:10EF800003836F5F603608F06CE4681719F44093F0
:10EF9000078382C060920A8310920B8310920883C9
:10EFA0006093098370920083F401809110838193B0
:10EFB000EA15FB05D1F7F092008320E030E0809164
:10EFC000078386FD05C02F5F3F4F25313105B9F717
:10EFD000E09207832B813C81C90180549040835B80
:10EFE000954018F00E94B9F657C089818F70813022
:10EFF00019F0B0E0A0E03BC0A90144505040B42F4C
:10F00000A52F40930A8350930B83609208836093EB
:10F01000098370920083BA0182E04335580710F0EB
:10F0200062E572E0E0E2F1E020E030E005C08091CE
:10F03000108381932F5F3F4F26173707C0F39B0143
:10F0400004C0809110832F5F3F4F24173507C8F30A
:10F05000F092008320E030E08091078386FD05C0B8
:10F060002F5F3F4F25313105B9F7E09207838A8141
:10F0700081508A838C3408F45A828A818093038376
:10F0800080912C0190912D018C159D0539F08850AF
:10F09000964011F40E9449F4B0E0A0E08B2F9A2F23
:10F0A0009C010115110539F02115310521F491E07C
:10F0B0004ECF2FEF3FEFC9010F900F900F900F90A1
:10F0C000CF91DF911F910F91FF90EF90DF90CF9044
:10F0D000BF90AF909F908F907F906F905F904F9078
:10F0E0000895E199FECF80E490E09FBB8EBBE09A4B
:10F0F0008DB3803259F520E430E0E0E0F1E0E199B1
:10F10000FECF3FBB2EBBE09A8DB381932F5F3F4F65
:10F1100020363105A1F7E199FECF80E091E09FBB59
:10F120008EBBE09A8DB3863889F420E031E0ECEFB5
:10F13000F5E0E199FECF3FBB2EBBE09A8DB3819302
:10F140002F5F3F4F81E02638380799F708952BE06D
:10F15000660F771F881F991F2A95D1F720E030E0AE
:10F1600040E050E005C000002F5F3F4F4F4F5F4F22
:10F170002617370748075907B4F30895FC0103C061
:10F18000FC010B0161E060936800E8956091680004
:08F1900060FDFCCF112408957D
:10F198000045544845524E5554000006980000005A
:10F1A8000000000000000000000000000000000057
:040000031000E00009
:00000001FF
