:020000021000EC
:10F00000F89421E0A0E0B1E0E1E0EBBFE2EBFFEF3C
:10F01000A033B20719F007900D92FACF1124C8E07F
:10F02000A0E3B1E0A63BBC0711F01D92FBCF0E940C
:10F030001BF80C94000080EC85BF0E942CF80E9405
:10F040005DFF892B31F40E94F3F8892B11F40E94A3
:10F0500031FA80E090E00895E199FECF80E490E0FD
:10F060009FBB8EBBE09A8DB3803281F420E430E008
:10F07000E0E0F1E0E199FECF3FBB2EBBE09A8DB31B
:10F0800081932F5F3F4F20363105A1F70895CF932D
:10F09000DF93982FEAE4F2E08081882301F18F3F2B
:10F0A00001F1EF0121968917B1F49881491708F40D
:10F0B000942FDF0120E030E009C0FB01E20FF31FD5
:10F0C00011968C91119780832F5F3F4F11962917CE
:10F0D000A0F3888107C08181FE01E80FF11D319600
:10F0E000DBCF80E0DF91CF910895CF93DF93FC01D8
:10F0F000EA01322FDC016D9321831196922F03C018
:10F1000089918183915031969923D1F7FD01E30FC5
:10F11000F11D8FEF8083CF01DF91CF910895AF92E2
:10F12000BF92CF92DF92EF92FF920F931F93DF93E4
:10F13000CF930F92CDB7DEB76C01E62EFF2400E02F
:10F1400010E05E010894A11CB11C012B81F46FEF4B
:10F150007FEF8FEF9FEF40E053E420E034E486013F
:10F160000E9404FB97FF03C00FEF1FEF2FC080E04A
:10F1700094E468E873E10E942AFB8C0118161906D2
:10F1800014F0F3941FC020915E0130915F01409113
:10F190006001509161018091B0039091B103A09101
:10F1A000B203B091B303281739074A075B0751F43C
:10F1B00085E3B50141E00E9447F8813019F4898167
:10F1C0008E1521F082E08F1508F0BFCFC8010F9097
:10F1D000CF91DF911F910F91FF90EF90DF90CF9033
:10F1E000BF90AF900895EF92FF920F931F93DF931C
:10F1F000CF9300D000D00F92CDB7DEB780911C0125
:10F2000090911D01A0911E01B0911F010097A105D1
:10F21000B10549F08093100190931101A093120160
:10F22000B0931301AAC01092100110921101109214
:10F2300012011092130111E01093AC0380910C01A4
:10F2400090910D01A0910E01B0910F018093B00338
:10F250009093B103A093B203B093B3031093AD03A3
:10F2600086E08093AE0388EC93E06AE071E046E0CC
:10F270000E94C9FF83E692E8A3E5B3E68093980471
:10F2800090939904A0939A04B0939B0419838CE9FA
:10F2900094E065E37E010894E11CF11CA70121E0E4
:10F2A0000E9475F884EF90E062E00E948FF81816D3
:10F2B00019060CF065C08E010E5F1F4F86E3B80182
:10F2C00044E00E9447F883E089838CE994E065E399
:10F2D000A70121E00E9475F862E34AE651E024E0CC
:10F2E0000E9475F866E3A80124E00E9475F880E0AA
:10F2F00091E065E00E948FF8181619060CF040C0E6
:10F3000080916A0190916B01A0916C01B0916D01A7
:10F310008093100190931101A0931201B0931301F7
:10F3200080916E0190916F01A0917001B091710177
:10F330008093D6059093D705A093D805B093D905AF
:10F34000A6ECB1E0198280E007C0E82FF0E0EC52B3
:10F35000FA4F968311968F5F9C91992311F08F3706
:10F36000A0F38983E981F0E0EC52FA4F168281E044
:10F3700064E171E044E00E9447F820E030E002C020
:10F380002FEF3FEFC9010F900F900F900F900F904C
:10F39000CF91DF911F910F91FF90EF900895AF9261
:10F3A000BF92CF92DF92EF92FF920F931F93CF9372
:10F3B000DF93EB01A0E0B0E0EE24F82E092F1A2F26
:10F3C00083E0F70100935B0080936800E89591E18A
:10F3D00003C090936800E8958091680086FDF9CF9E
:10F3E000A8019701A12C81E0B82EC12CD12CAE0C24
:10F3F000BF1CC01ED11EA1E014C0798160E08881CD
:10F40000FB01E80FF11DCF010C01F90140935B00F6
:10F41000A0936800E895112422962E5F3F4F4F4F2E
:10F420005F4F2A153B054C055D0538F385E0F70174
:10F4300000935B0080936800E89591E103C090938E
:10F440006800E8958091680086FDF9CFDF91CF9143
:10F450001F910F91FF90EF90DF90CF90BF90AF90F2
:10F4600008956F927F928F929F92AF92BF92DF9298
:10F47000EF92FF920F931F93CF93DF938091D60566
:10F480009091D705A091D805B091D9050097A10515
:10F49000B10509F4A5C080E091E09093AD0380939D
:10F4A000AC038091DA05882319F0AAEDB5E002C01B
:10F4B000A0E2B1E0EEEAF3E002E010E08D9181938A
:10F4C0000F5F1F4F8823D1F7CF0169E271E046E05B
:10F4D0000E94C9FF76E0872E912C800E911EA12CF0
:10F4E00065E4B62EC0E0D0E0612C54E0752EDD243A
:10F4F0006091D6057091D7058091D8059091D90576
:10F50000A50124E030E084010E9404FB97FD14C0B3
:10F5100084E090E068E873E10E942AFB7C0184E0CB
:10F52000E816F1044CF080915A0190915B010E9421
:10F53000B8FF039731F057C0D39483E0D816C1F6D3
:10F5400052C0209759F4A0905201B090530170928C
:10F55000AD036092AC0344E0842E912C80915C0159
:10F5600090915D010E94B8FF8C01CE0101960817B1
:10F57000190721F02097B9F18E011DC084E0E8162B
:10F58000F10491F0CC0FDD1FCE016EE571E00E9419
:10F59000CFF985E0E81681E0F80634F0CE01019657
:10F5A0006EE572E00E94CFF9C8010E94B8FF909307
:10F5B000AF038093AE0384E0E81682E0F80614F00F
:10F5C000E80195CF6091D6057091D7058091D80557
:10F5D0009091D905A50124E030E084010E9404FB4C
:10F5E00020E030E002C02FEF3FEFC901DF91CF9163
:10F5F0001F910F91FF90EF90DF90BF90AF909F9081
:10F600008F907F906F900895CF92DF92EF92FF924C
:10F610000F931F936B017C013093A5032093A403E8
:10F620005093A7034093A603085F1F4FC8010E9491
:10F63000B8FF9093A9038093A803C701B60141E1E5
:10F6400098010E9487FB1F910F91FF90EF90DF9030
:10F65000CF9008950F931F93CF93DF938C01EB010D
:10F6600081E1BE010E9401FC9C011816190684F478
:10F6700080915401909155010817190789F78091DD
:10F680005601909157010E94B8FF9C0128503040CC
:10F69000C901DF91CF911F910F9108950F931F938F
:10F6A000CF93DF938C01EC01FB0120E030E040E0E0
:10F6B00050E0E230F10550F089919991A0E0B0E07E
:10F6C000280F391F4A1F5B1F3297F3CFCB018E7F64
:10F6D000F801E80FF91F6817790759F08081280FA2
:10F6E000311D411D511D05C0620F731F9B0140E07C
:10F6F00050E0CA01AA27BB27BC01892BA9F7209596
:10F700003095C901DF91CF911F910F9108958F928C
:10F710009F92BF92CF92DF92EF92FF920F931F932F
:10F72000DF93CF9300D000D000D0CDB7DEB76B0110
:10F730007C01B42E89014E010894811C911CA40106
:10F740000E946BFC892B19F02FEF3FEF47C085E437
:10F75000809390030C5E1F4FC8010E94B8FF9093E6
:10F7600093038093920380E480939803B09299036B
:10F77000C092A003D092A103E092A203F092A3034F
:10F780008091100190911101A0911201B09113018B
:10F7900080939C0390939D03A0939E03B0939F033B
:10F7A0008091940390919503019690939503809393
:10F7B000940310929B0310929A0380E993E064E112
:10F7C00070E00E944EFB90939B0380939A03C401C8
:10F7D00068E070E0A8010E9453FE9C01C9012696D2
:10F7E0000FB6F894DEBF0FBECDBFCF91DF911F9152
:10F7F0000F91FF90EF90DF90CF90BF909F908F90F0
:10F8000008950F931F93CF93DF93082FEB011AE016
:10F81000115018F460E070E058C088E090E0BE013C
:10F820000E94E5FDBC01181619060CF04EC080912F
:10F830003E01807F803461F780914701801741F756
:10F8400080914001909141010E94B8FF40913E019A
:10F85000242F2F7030E0220F331F220F331FBC01E3
:10F86000621B730B20914E0130914F01409150016A
:10F87000509151012F3F8FEF38078FEF48078FEFDF
:10F88000580719F18091100190911101A091120176
:10F89000B09113010097A105B105B9F028173907F8
:10F8A0004A075B0791F08091140190911501A09196
:10F8B0001601B0911701282B392B4A2B5B2B2F5F98
:10F8C0003F4F4F4F5F4F09F0A3CFCB01DF91CF9157
:10F8D0001F910F910895DF92EF92FF920F931F9364
:10F8E000CF93DF937B018C01EA01CA016FEF46E001
:10F8F0000E94D2FF2FEFE2162FEFF2062FEF020742
:10F900002FEF120709F4A4C080918808909189080C
:10F91000A0918A08B0918B08E816F9060A071B0720
:10F9200021F4CE0162E878E090C020E031E030932D
:10F930009B0820939A0888E090E090939D0880931C
:10F940009C0886E080939E0884E080939F08309313
:10F95000A1082093A00882EA98E06AE071E046E0FE
:10F960000E94C9FF8CEA98E06FEF46E00E94D2FF48
:10F970008091100190911101A0911201B091130199
:10F980008093A8089093A908A093AA08B093AB0805
:10F99000E092B208F092B3080093B4081093B5084F
:10F9A000DD2460E070E0672B49F4CE0168E076E08A
:10F9B0004CE150E00E9453FE97FD51C088E096E074
:10F9C00068EE73E00E94E5FDBC011816190614F0FC
:10F9D000D39441C020915601309157014091580174
:10F9E000509159018091100190911101A091120143
:10F9F000B0911301281739074A075B0761F5809119
:10FA00004401909145018050924029F580914C012C
:10FA100090914D01A0914E01B0914F018E159F051F
:10FA2000A007B107C1F4E0928808F092890800931A
:10FA30008A0810938B0882E898E066E471E046E05B
:10FA40000E94C9FFCE0166E471E046E00E94C9FF52
:10FA500020E030E006C082E08D1508F0A4CF2FEF43
:10FA60003FEFC901DF91CF911F910F91FF90EF9070
:10FA7000DF900895F82F83E080930EC0809108C036
:10FA8000827F482F486090E0E82FE960782F7D6002
:10FA9000E09308C0709308C09F5F9132C9F740930C
:10FAA00008C0542F5460509308C0E09308C070936E
:10FAB00008C0662349F0409308C0509308C0E09303
:10FAC00008C0709308C008C0E09308C0709308C0D5
:10FAD000409308C0509308C080E0409308C0509302
:10FAE00008C08F5F8530C9F790E120E030E0892FB2
:10FAF0008F2329F0E09308C0709308C004C040939E
:10FB000008C0509308C096952F5F3F4F25303105B0
:10FB100071F7409308C0842F089560E00E943AFD79
:10FB2000582F577F509308C0652F6460609308C0BA
:10FB300020E030E040E0509308C0609308C0220FFE
:10FB4000331F809108C090E09695879581709070E2
:10FB5000282B392B4F5F403171F7509308C0C901F2
:10FB60000895CF93DF93EB0161E00E943AFD482FA7
:10FB7000F82FF160F09308C0E82FE560E09308C02B
:10FB8000809308C0582F5460509308C060E070E81C
:10FB900020E030E0CB018C239D23892B29F0F093CA
:10FBA00008C0E09308C004C0409308C0509308C048
:10FBB000769567952F5F3F4F2031310559F7477F85
:10FBC000409308C0DF91CF910895CF93DF93EB016D
:10FBD00082E080930EC00BC0809104C0909105C05C
:10FBE000219797FF06C088EE93E00E948DFF209733
:10FBF00099F7809104C0909105C097FF03C020E061
:10FC000030E031C0109206C080EE809307C081E0E2
:10FC100090E00E948DFF809108C0909109C02091D2
:10FC200008C0309109C080709C7A892B19F04FEF81
:10FC30005FEF15C0A9014350504082E0433558079B
:10FC400010F042E552E09A01E0E3F1E005C0809156
:10FC500008C081932150304021153105C1F780E85B
:10FC6000809300C09A01C901DF91CF910895CF938D
:10FC7000DF93EC0108C0809100C080FF09C088EECE
:10FC800093E00E948DFF21978FEFCF3FD80799F720
:10FC9000CD2B19F42FEF3FEF02C020E030E0C90177
:10FCA000DF91CF910895CF92DF92EF92FF920F9361
:10FCB0001F93CF93DF936C01EB017A0186E06830EC
:10FCC000780719F002E813E002C00CE818E0C80158
:10FCD00006966AE071E046E00E94C9FFC801B601DD
:10FCE00046E00E94C9FFF801D587C487E701649602
:10FCF000C0FF02C0E701659682E080930EC0B0E2CB
:10FD0000FB2EF09200C084E690E00E9437FE892B23
:10FD1000E1F580910CC083FD13C080E4809300C0A6
:10FD200088EE93E00E9437FEF09200C084E690E0F7
:10FD30000E9437FE892B49F580910CC083FF25C0B6
:10FD4000809103C0809302C082E0809306C080E46B
:10FD5000809307C0C09308C0D09309C006C0F801C3
:10FD600081918F01809308C021972097C1F710924D
:10FD700008C0109209C084E690E00E9437FE80EC33
:10FD8000809300C020E030E002C02FEF3FEFC901B8
:10FD9000DF91CF911F910F91FF90EF90DF90CF9067
:10FDA00008951F9310920DC010920EC0109204C0BF
:10FDB00080E8809305C011E010930EC0109200C03F
:10FDC000809301C081E00E9497FF10920EC01092B4
:10FDD00004C0109205C0109200C0109201C0109390
:10FDE0000EC010920CC088E080930DC082E080931A
:10FDF0000EC080E4809300C088EE93E00E9437FE3E
:10FE0000892B19F420E030E002C02FEF3FEFC90149
:10FE10001F910895CF93DF9380E060E070E80E9427
:10FE2000B1FDC0E0D0E081E00E9497FF80E00E9439
:10FE30008DFD97FF05C0C430D105C9F12196F3CFE0
:10FE400081E00E9497FF82E10E948DFD83E160ECDA
:10FE50007FE30E94B1FD10920EC080E180930AC042
:10FE600088E080930BC084E061EE71E00E94B1FDF8
:10FE7000C0E0D0E0CE018F779070892B41F480E014
:10FE800060E072E10E94B1FD82E00E9497FF81E094
:10FE90000E948DFD85FF03C020E030E00AC083E0B2
:10FEA0000E9497FF219684E0C030D80719F72FEF02
:10FEB0003FEFC901DF91CF9108951F930E94D1FEBA
:10FEC000892B31F583E080930EC087E080930CC0CE
:10FED00010920EC0109204C011E0109305C081E88A
:10FEE000809300C0109201C00E940AFF892B81F408
:10FEF00010930EC0A4E0B0ECFD01EA5FFE4B8081E0
:10FF00008D9380ECAA30B807B9F720E030E002C04A
:10FF10002FEF3FEFC9011F91089520E030E003C0AB
:10FF200000002F5F3F4F28173907D0F3089590E066
:10FF30001CC020E030E000002F5F3F4F4FEF2F3F0D
:10FF40003407C9F720E030E000002F5F3F4F4FEF4C
:10FF50002F3F3407C9F720E030E000002F5F3F4F0C
:10FF60004FEF2F3F3407C9F79F5F981710F308959D
:10FF70009C01022E232F302DC90108959B01AC0155
:10FF8000022E252F502D032E342F402DB901CA01EA
:10FF90000895DC01FB0103C081918D9341504423FE
:10FFA000D9F70895FC0102C0619341504423E1F761
:02FFB0000895B2
:10FFB2000045544845524E55540000069800000032
:10FFC200000000000000000000000000000000002F
:10FFD200656E75742E62696E006F637465740000DD
:040000031000F000F9
:00000001FF
